:020000000150AD
:0200030001A159
:10005000900245C2B7C2D5C2B6C28E1170118212CB
:100060000222D28E11B110D5EE120222015780FE6B
:10007000758910758D3C758BAF7C14C288D2A8D25F
:10008000AF227D001201BD10D51630B102018412DD
:10009000023330B102018430B1FD0DBD1FE6018293
:1000A0002230B20132513330B2013230B2FDD2D5FA
:1000B00032C2AF108F02800931AC31BDBD000201E8
:1000C000D130900201D2D2AFC28E7A0131B830D590
:1000D000FD22108F02800931AC31BDBD000201F05C
:1000E00030910201F1D2AFC28E7A0231B830D5FD23
:1000F00022108F02800A1201AC31BDBD0002211016
:100100003092022111D2AFC28E7A0331B830D5FDC0
:1001100022108F02800931AC31BDBD0002212F3089
:1001200093022130D2AFC28E7A0431B830D5FD228D
:10013000108F02800931AC31BDBD0002214E3094D8
:1001400002214FD2AFC28E7A0531B830D5FD2210D0
:100150008F02800931AC31BDBD0002216D309502A6
:10016000216ED2AFC28E7A0631B830D5FD22108F03
:1001700002800931AC31BDBD0002218C30960221D4
:100180008DD2AFC28E7A0731B830D5FD22108F02E2
:0E019000219B31AC31BDBD000221AB30970286
:10019E0001B3D2AFC28E7A0831B830D5FD22758D3B
:1001AE003C758BAFDC037C141D2231BD31D722315F
:1001BE00E47880510675F002EDA493F9511575F0AF
:1001CE0002EDA40493F951152231F778C05106EAD5
:1001DE002430F9511522513378385106780C5106D6
:1001EE007806510678015106225133783851067837
:1001FE000C51067806510622C2A5C2A4C2A388805D
:10020E00D2A3513CC2A322D2A5C2A4D2A3898051AB
:10021E003CC2A322D2B67B327E647F64DFFEDEFA5E
:10022E00DBF6C2B6227E3C7FFADFFEDEFA227E14B9
:10023E007FFADFFEDEFA22303030313032303330AA
:10024E003430353036303730383039313031313175
:10025E00323133313431353136313731383139325B
:10026E003032313232323332343235323632373254
:05027E00383239333075
:00000001FF
